{
  "contractName": "LoginTimestamp",
  "abi": [
    {
      "anonymous": false,
      "inputs": [
        {
          "indexed": true,
          "internalType": "address",
          "name": "dataScientist",
          "type": "address"
        },
        {
          "indexed": false,
          "internalType": "uint256",
          "name": "timestamp",
          "type": "uint256"
        }
      ],
      "name": "LoginRecorded",
      "type": "event"
    },
    {
      "inputs": [
        {
          "internalType": "address",
          "name": "",
          "type": "address"
        }
      ],
      "name": "logins",
      "outputs": [
        {
          "internalType": "address",
          "name": "dataScientist",
          "type": "address"
        },
        {
          "internalType": "uint256",
          "name": "timestamp",
          "type": "uint256"
        }
      ],
      "stateMutability": "view",
      "type": "function",
      "constant": true
    },
    {
      "inputs": [],
      "name": "recordLogin",
      "outputs": [],
      "stateMutability": "nonpayable",
      "type": "function"
    },
    {
      "inputs": [
        {
          "internalType": "address",
          "name": "_dataScientist",
          "type": "address"
        }
      ],
      "name": "getLoginDetails",
      "outputs": [
        {
          "internalType": "address",
          "name": "",
          "type": "address"
        },
        {
          "internalType": "uint256",
          "name": "",
          "type": "uint256"
        }
      ],
      "stateMutability": "view",
      "type": "function",
      "constant": true
    }
  ],
  "bytecode": "0x608060405234801561000f575f80fd5b506103d88061001d5f395ff3fe608060405234801561000f575f80fd5b506004361061003f575f3560e01c80637691e99014610043578063a54cb4c814610074578063af31b86b146100a5575b5f80fd5b61005d60048036038101906100589190610310565b6100af565b60405161006b929190610362565b60405180910390f35b61008e60048036038101906100899190610310565b61016c565b60405161009c929190610362565b60405180910390f35b6100ad6101aa565b005b5f805f805f8573ffffffffffffffffffffffffffffffffffffffff1673ffffffffffffffffffffffffffffffffffffffff1681526020019081526020015f206040518060400160405290815f82015f9054906101000a900473ffffffffffffffffffffffffffffffffffffffff1673ffffffffffffffffffffffffffffffffffffffff1673ffffffffffffffffffffffffffffffffffffffff1681526020016001820154815250509050805f015181602001519250925050915091565b5f602052805f5260405f205f91509050805f015f9054906101000a900473ffffffffffffffffffffffffffffffffffffffff16908060010154905082565b60405180604001604052803373ffffffffffffffffffffffffffffffffffffffff168152602001428152505f803373ffffffffffffffffffffffffffffffffffffffff1673ffffffffffffffffffffffffffffffffffffffff1681526020019081526020015f205f820151815f015f6101000a81548173ffffffffffffffffffffffffffffffffffffffff021916908373ffffffffffffffffffffffffffffffffffffffff160217905550602082015181600101559050503373ffffffffffffffffffffffffffffffffffffffff167f835cc2530253f46a5324bd73c13c56ab33a62f9629a74196d6df3768b2a62e2c426040516102a89190610389565b60405180910390a2565b5f80fd5b5f73ffffffffffffffffffffffffffffffffffffffff82169050919050565b5f6102df826102b6565b9050919050565b6102ef816102d5565b81146102f9575f80fd5b50565b5f8135905061030a816102e6565b92915050565b5f60208284031215610325576103246102b2565b5b5f610332848285016102fc565b91505092915050565b610344816102d5565b82525050565b5f819050919050565b61035c8161034a565b82525050565b5f6040820190506103755f83018561033b565b6103826020830184610353565b9392505050565b5f60208201905061039c5f830184610353565b9291505056fea2646970667358221220e370565a076e16e0ad6345557b92eee130cb607bcb45797a14fbe44da23464d664736f6c63430008150033",
  "immutableReferences": {},
  "source": "// contracts/LoginTimestamp.sol\r\npragma solidity ^0.8.0;\r\n\r\ncontract LoginTimestamp {\r\n    struct LoginDetails {\r\n        address dataScientist;\r\n        uint256 timestamp;\r\n    }\r\n\r\n    // Mapping from data scientist's address to their login details\r\n    mapping(address => LoginDetails) public logins;\r\n\r\n    // Event to emit the login details\r\n    event LoginRecorded(address indexed dataScientist, uint256 timestamp);\r\n\r\n    // Function to record the login timestamp\r\n    function recordLogin() public {\r\n        logins[msg.sender] = LoginDetails(msg.sender, block.timestamp);\r\n        emit LoginRecorded(msg.sender, block.timestamp);\r\n    }\r\n\r\n    // Function to retrieve login timestamp by address\r\n    function getLoginDetails(address _dataScientist) public view returns (address, uint256) {\r\n        LoginDetails memory details = logins[_dataScientist];\r\n        return (details.dataScientist, details.timestamp);\r\n    }\r\n}\r\n",
  "sourcePath": "/mnt/c/Users/rajm9/block chain/Thesis_work/contracts/LoginTimestamp.sol",
  "compiler": {
    "name": "solc",
    "version": "0.8.21+commit.d9974bed.Emscripten.clang"
  },
  "schemaVersion": "3.4.16",
  "updatedAt": "2024-09-18T05:25:28.811Z",
  "networkType": "ethereum",
  "devdoc": {
    "kind": "dev",
    "methods": {},
    "version": 1
  },
  "userdoc": {
    "kind": "user",
    "methods": {},
    "version": 1
  }
}